{
  "_format": "hh-sol-artifact-1",
  "contractName": "BreadFarm",
  "sourceName": "contracts/breadfarm.sol",
  "abi": [
    {
      "inputs": [
        {
          "internalType": "contract IERC20",
          "name": "_daiToken",
          "type": "address"
        },
        {
          "internalType": "contract PolyBread",
          "name": "_breadToken",
          "type": "address"
        }
      ],
      "stateMutability": "nonpayable",
      "type": "constructor"
    },
    {
      "anonymous": false,
      "inputs": [
        {
          "indexed": true,
          "internalType": "address",
          "name": "from",
          "type": "address"
        },
        {
          "indexed": false,
          "internalType": "uint256",
          "name": "amount",
          "type": "uint256"
        }
      ],
      "name": "Stake",
      "type": "event"
    },
    {
      "anonymous": false,
      "inputs": [
        {
          "indexed": true,
          "internalType": "address",
          "name": "from",
          "type": "address"
        },
        {
          "indexed": false,
          "internalType": "uint256",
          "name": "amount",
          "type": "uint256"
        }
      ],
      "name": "Unstake",
      "type": "event"
    },
    {
      "anonymous": false,
      "inputs": [
        {
          "indexed": true,
          "internalType": "address",
          "name": "to",
          "type": "address"
        },
        {
          "indexed": false,
          "internalType": "uint256",
          "name": "amount",
          "type": "uint256"
        }
      ],
      "name": "YieldWithdraw",
      "type": "event"
    },
    {
      "inputs": [
        {
          "internalType": "address",
          "name": "",
          "type": "address"
        }
      ],
      "name": "breadBalance",
      "outputs": [
        {
          "internalType": "uint256",
          "name": "",
          "type": "uint256"
        }
      ],
      "stateMutability": "view",
      "type": "function"
    },
    {
      "inputs": [],
      "name": "breadToken",
      "outputs": [
        {
          "internalType": "contract PolyBread",
          "name": "",
          "type": "address"
        }
      ],
      "stateMutability": "view",
      "type": "function"
    },
    {
      "inputs": [
        {
          "internalType": "address",
          "name": "user",
          "type": "address"
        }
      ],
      "name": "calculateYieldTotal",
      "outputs": [
        {
          "internalType": "uint256",
          "name": "",
          "type": "uint256"
        }
      ],
      "stateMutability": "view",
      "type": "function"
    },
    {
      "inputs": [],
      "name": "daiToken",
      "outputs": [
        {
          "internalType": "contract IERC20",
          "name": "",
          "type": "address"
        }
      ],
      "stateMutability": "view",
      "type": "function"
    },
    {
      "inputs": [
        {
          "internalType": "address",
          "name": "",
          "type": "address"
        }
      ],
      "name": "isStaking",
      "outputs": [
        {
          "internalType": "bool",
          "name": "",
          "type": "bool"
        }
      ],
      "stateMutability": "view",
      "type": "function"
    },
    {
      "inputs": [],
      "name": "name",
      "outputs": [
        {
          "internalType": "string",
          "name": "",
          "type": "string"
        }
      ],
      "stateMutability": "view",
      "type": "function"
    },
    {
      "inputs": [
        {
          "internalType": "uint256",
          "name": "amount",
          "type": "uint256"
        }
      ],
      "name": "stake",
      "outputs": [],
      "stateMutability": "nonpayable",
      "type": "function"
    },
    {
      "inputs": [
        {
          "internalType": "address",
          "name": "",
          "type": "address"
        }
      ],
      "name": "stakingBalance",
      "outputs": [
        {
          "internalType": "uint256",
          "name": "",
          "type": "uint256"
        }
      ],
      "stateMutability": "view",
      "type": "function"
    },
    {
      "inputs": [
        {
          "internalType": "address",
          "name": "",
          "type": "address"
        }
      ],
      "name": "startTime",
      "outputs": [
        {
          "internalType": "uint256",
          "name": "",
          "type": "uint256"
        }
      ],
      "stateMutability": "view",
      "type": "function"
    },
    {
      "inputs": [
        {
          "internalType": "uint256",
          "name": "amount",
          "type": "uint256"
        }
      ],
      "name": "unstake",
      "outputs": [],
      "stateMutability": "nonpayable",
      "type": "function"
    },
    {
      "inputs": [],
      "name": "withdrawYield",
      "outputs": [],
      "stateMutability": "nonpayable",
      "type": "function"
    }
  ],
  "bytecode": "0x60c0604052600960808190526842726561644661726d60b81b60a090815261002a9160049190610097565b5034801561003757600080fd5b50604051610a1f380380610a1f8339818101604052604081101561005a57600080fd5b508051602090910151600580546001600160a01b039384166001600160a01b0319918216179091556006805493909216921691909117905561012a565b828054600181600116156101000203166002900490600052602060002090601f016020900481019282601f106100d857805160ff1916838001178555610105565b82800160010185558215610105579182015b828111156101055782518255916020019190600101906100ea565b50610111929150610115565b5090565b5b808211156101115760008155600101610116565b6108e6806101396000396000f3fe608060405234801561001057600080fd5b50600436106100a95760003560e01c80636d0e3c5c116100715780636d0e3c5c146101cc5780636e1dc66e146101f25780636f49712b14610218578063a694fc3a14610252578063be22f5461461026f578063e507a8a414610277576100a9565b806306872661146100ae57806306fdde03146100e65780632e17de781461016357806345bc78ab1461018257806347b177e0146101a8575b600080fd5b6100d4600480360360208110156100c457600080fd5b50356001600160a01b031661027f565b60408051918252519081900360200190f35b6100ee6102c5565b6040805160208082528351818301528351919283929083019185019080838360005b83811015610128578181015183820152602001610110565b50505050905090810190601f1680156101555780820380516001836020036101000a031916815260200191505b509250505060405180910390f35b6101806004803603602081101561017957600080fd5b5035610353565b005b6100d46004803603602081101561019857600080fd5b50356001600160a01b03166104d6565b6101b06104e8565b604080516001600160a01b039092168252519081900360200190f35b6100d4600480360360208110156101e257600080fd5b50356001600160a01b03166104f7565b6100d46004803603602081101561020857600080fd5b50356001600160a01b0316610509565b61023e6004803603602081101561022e57600080fd5b50356001600160a01b031661051b565b604080519115158252519081900360200190f35b6101806004803603602081101561026857600080fd5b5035610530565b6101b0610735565b610180610744565b60008061028b83610893565b6001600160a01b0393909316600090815260208190526040902054670de0b6b3a76400006201518094810294909404029290920492915050565b6004805460408051602060026001851615610100026000190190941693909304601f8101849004840282018401909252818152929183018282801561034b5780601f106103205761010080835404028352916020019161034b565b820191906000526020600020905b81548152906001019060200180831161032e57829003601f168201915b505050505081565b33600090815260208181526040808320546001909252909120805460ff19169183111591821790556103c1576040805162461bcd60e51b81526020600482015260126024820152716e6f7468696e6720746f20756e7374616b6560701b604482015290519081900360640190fd5b60006103cc3361027f565b3360008181526020818152604080832080548890039055600554815163a9059cbb60e01b8152600481019590955260248501889052905192969495506001600160a01b03169263a9059cbb926044808301939282900301818987803b15801561043457600080fd5b505af1158015610448573d6000803e3d6000fd5b505050506040513d602081101561045e57600080fd5b50503360009081526003602090815260408083208054860190559082905290205461049b57336000908152600160205260409020805460ff191690555b60408051848152905133917f85082129d87b2fe11527cb1b3b7a520aeb5aa6913f88a3d8757fe40d1db02fdd919081900360200190a2505050565b60006020819052908152604090205481565b6006546001600160a01b031681565b60036020526000908152604090205481565b60026020526000908152604090205481565b60016020526000908152604090205460ff1681565b6000811180156105b45750600554604080516370a0823160e01b8152336004820152905183926001600160a01b0316916370a08231916024808301926020929190829003018186803b15801561058557600080fd5b505afa158015610599573d6000803e3d6000fd5b505050506040513d60208110156105af57600080fd5b505110155b610605576040805162461bcd60e51b815260206004820152601c60248201527f596f752063616e6e6f74207374616b65207a65726f20746f6b656e7300000000604482015290519081900360640190fd5b3360009081526001602081905260409091205460ff161515141561064657600061062e3361027f565b33600090815260036020526040902080549091019055505b600554604080516323b872dd60e01b81523360048201523060248201526044810184905290516001600160a01b03909216916323b872dd916064808201926020929091908290030181600087803b1580156106a057600080fd5b505af11580156106b4573d6000803e3d6000fd5b505050506040513d60208110156106ca57600080fd5b50503360008181526020818152604080832080548601905560028252808320429055600180835292819020805460ff1916909317909255815184815291517febedb8b3c678666e7f36970bc8f57abf6d8fa2e828c0da91ea5b75bf68ed101a9281900390910190a250565b6005546001600160a01b031681565b600061074f3361027f565b9050600081118061076e57503360009081526003602052604090205415155b6107b5576040805162461bcd60e51b81526020600482015260136024820152726e6f7468696e6720746f20776974686472617760681b604482015290519081900360640190fd5b33600090815260036020526040902054156107e0573360009081526003602052604081208054919055015b3360008181526002602052604080822042905560065481516340c10f1960e01b815260048101949094526024840185905290516001600160a01b03909116926340c10f1992604480830193919282900301818387803b15801561084257600080fd5b505af1158015610856573d6000803e3d6000fd5b50506040805184815290513393507f92044e3943309ee5950e21bc7421d02c1df75f0df33c0d97c1143687b49a4c5792509081900360200190a250565b6001600160a01b031660009081526002602052604090205442039056fea26469706673582212203bfe194386d3a395987a1d5819cf866a69e2e2edc152a529554f297efe3a103d64736f6c63430007000033",
  "linkReferences": {},
  "deployedLinkReferences": {}
}