{
  "address": "0x88911E5e51BE9A1bB25B8b243514dDC4F9Bba4dE",
  "abi": [
    {
      "inputs": [],
      "stateMutability": "nonpayable",
      "type": "constructor"
    },
    {
      "anonymous": false,
      "inputs": [
        {
          "indexed": true,
          "internalType": "address",
          "name": "owner",
          "type": "address"
        },
        {
          "indexed": true,
          "internalType": "address",
          "name": "spender",
          "type": "address"
        },
        {
          "indexed": false,
          "internalType": "uint256",
          "name": "value",
          "type": "uint256"
        }
      ],
      "name": "Approval",
      "type": "event"
    },
    {
      "anonymous": false,
      "inputs": [
        {
          "indexed": true,
          "internalType": "address",
          "name": "previousOwner",
          "type": "address"
        },
        {
          "indexed": true,
          "internalType": "address",
          "name": "newOwner",
          "type": "address"
        }
      ],
      "name": "OwnershipTransferred",
      "type": "event"
    },
    {
      "anonymous": false,
      "inputs": [
        {
          "indexed": false,
          "internalType": "address",
          "name": "account",
          "type": "address"
        }
      ],
      "name": "Paused",
      "type": "event"
    },
    {
      "anonymous": false,
      "inputs": [
        {
          "indexed": false,
          "internalType": "uint256",
          "name": "id",
          "type": "uint256"
        }
      ],
      "name": "Snapshot",
      "type": "event"
    },
    {
      "anonymous": false,
      "inputs": [
        {
          "indexed": true,
          "internalType": "address",
          "name": "from",
          "type": "address"
        },
        {
          "indexed": true,
          "internalType": "address",
          "name": "to",
          "type": "address"
        },
        {
          "indexed": false,
          "internalType": "uint256",
          "name": "value",
          "type": "uint256"
        }
      ],
      "name": "Transfer",
      "type": "event"
    },
    {
      "anonymous": false,
      "inputs": [
        {
          "indexed": false,
          "internalType": "address",
          "name": "account",
          "type": "address"
        }
      ],
      "name": "Unpaused",
      "type": "event"
    },
    {
      "inputs": [
        {
          "internalType": "address",
          "name": "owner",
          "type": "address"
        },
        {
          "internalType": "address",
          "name": "spender",
          "type": "address"
        }
      ],
      "name": "allowance",
      "outputs": [
        {
          "internalType": "uint256",
          "name": "",
          "type": "uint256"
        }
      ],
      "stateMutability": "view",
      "type": "function"
    },
    {
      "inputs": [
        {
          "internalType": "address",
          "name": "spender",
          "type": "address"
        },
        {
          "internalType": "uint256",
          "name": "amount",
          "type": "uint256"
        }
      ],
      "name": "approve",
      "outputs": [
        {
          "internalType": "bool",
          "name": "",
          "type": "bool"
        }
      ],
      "stateMutability": "nonpayable",
      "type": "function"
    },
    {
      "inputs": [
        {
          "internalType": "address",
          "name": "account",
          "type": "address"
        }
      ],
      "name": "balanceOf",
      "outputs": [
        {
          "internalType": "uint256",
          "name": "",
          "type": "uint256"
        }
      ],
      "stateMutability": "view",
      "type": "function"
    },
    {
      "inputs": [
        {
          "internalType": "address",
          "name": "account",
          "type": "address"
        },
        {
          "internalType": "uint256",
          "name": "snapshotId",
          "type": "uint256"
        }
      ],
      "name": "balanceOfAt",
      "outputs": [
        {
          "internalType": "uint256",
          "name": "",
          "type": "uint256"
        }
      ],
      "stateMutability": "view",
      "type": "function"
    },
    {
      "inputs": [
        {
          "internalType": "uint256",
          "name": "amount",
          "type": "uint256"
        }
      ],
      "name": "burn",
      "outputs": [],
      "stateMutability": "nonpayable",
      "type": "function"
    },
    {
      "inputs": [
        {
          "internalType": "address",
          "name": "account",
          "type": "address"
        },
        {
          "internalType": "uint256",
          "name": "amount",
          "type": "uint256"
        }
      ],
      "name": "burnFrom",
      "outputs": [],
      "stateMutability": "nonpayable",
      "type": "function"
    },
    {
      "inputs": [],
      "name": "decimals",
      "outputs": [
        {
          "internalType": "uint8",
          "name": "",
          "type": "uint8"
        }
      ],
      "stateMutability": "view",
      "type": "function"
    },
    {
      "inputs": [
        {
          "internalType": "address",
          "name": "spender",
          "type": "address"
        },
        {
          "internalType": "uint256",
          "name": "subtractedValue",
          "type": "uint256"
        }
      ],
      "name": "decreaseAllowance",
      "outputs": [
        {
          "internalType": "bool",
          "name": "",
          "type": "bool"
        }
      ],
      "stateMutability": "nonpayable",
      "type": "function"
    },
    {
      "inputs": [
        {
          "internalType": "address",
          "name": "spender",
          "type": "address"
        },
        {
          "internalType": "uint256",
          "name": "addedValue",
          "type": "uint256"
        }
      ],
      "name": "increaseAllowance",
      "outputs": [
        {
          "internalType": "bool",
          "name": "",
          "type": "bool"
        }
      ],
      "stateMutability": "nonpayable",
      "type": "function"
    },
    {
      "inputs": [
        {
          "internalType": "address",
          "name": "to",
          "type": "address"
        },
        {
          "internalType": "uint256",
          "name": "amount",
          "type": "uint256"
        }
      ],
      "name": "mint",
      "outputs": [],
      "stateMutability": "nonpayable",
      "type": "function"
    },
    {
      "inputs": [],
      "name": "name",
      "outputs": [
        {
          "internalType": "string",
          "name": "",
          "type": "string"
        }
      ],
      "stateMutability": "view",
      "type": "function"
    },
    {
      "inputs": [],
      "name": "owner",
      "outputs": [
        {
          "internalType": "address",
          "name": "",
          "type": "address"
        }
      ],
      "stateMutability": "view",
      "type": "function"
    },
    {
      "inputs": [],
      "name": "pause",
      "outputs": [],
      "stateMutability": "nonpayable",
      "type": "function"
    },
    {
      "inputs": [],
      "name": "paused",
      "outputs": [
        {
          "internalType": "bool",
          "name": "",
          "type": "bool"
        }
      ],
      "stateMutability": "view",
      "type": "function"
    },
    {
      "inputs": [],
      "name": "renounceOwnership",
      "outputs": [],
      "stateMutability": "nonpayable",
      "type": "function"
    },
    {
      "inputs": [],
      "name": "snapshot",
      "outputs": [],
      "stateMutability": "nonpayable",
      "type": "function"
    },
    {
      "inputs": [],
      "name": "symbol",
      "outputs": [
        {
          "internalType": "string",
          "name": "",
          "type": "string"
        }
      ],
      "stateMutability": "view",
      "type": "function"
    },
    {
      "inputs": [],
      "name": "totalSupply",
      "outputs": [
        {
          "internalType": "uint256",
          "name": "",
          "type": "uint256"
        }
      ],
      "stateMutability": "view",
      "type": "function"
    },
    {
      "inputs": [
        {
          "internalType": "uint256",
          "name": "snapshotId",
          "type": "uint256"
        }
      ],
      "name": "totalSupplyAt",
      "outputs": [
        {
          "internalType": "uint256",
          "name": "",
          "type": "uint256"
        }
      ],
      "stateMutability": "view",
      "type": "function"
    },
    {
      "inputs": [
        {
          "internalType": "address",
          "name": "recipient",
          "type": "address"
        },
        {
          "internalType": "uint256",
          "name": "amount",
          "type": "uint256"
        }
      ],
      "name": "transfer",
      "outputs": [
        {
          "internalType": "bool",
          "name": "",
          "type": "bool"
        }
      ],
      "stateMutability": "nonpayable",
      "type": "function"
    },
    {
      "inputs": [
        {
          "internalType": "address",
          "name": "sender",
          "type": "address"
        },
        {
          "internalType": "address",
          "name": "recipient",
          "type": "address"
        },
        {
          "internalType": "uint256",
          "name": "amount",
          "type": "uint256"
        }
      ],
      "name": "transferFrom",
      "outputs": [
        {
          "internalType": "bool",
          "name": "",
          "type": "bool"
        }
      ],
      "stateMutability": "nonpayable",
      "type": "function"
    },
    {
      "inputs": [
        {
          "internalType": "address",
          "name": "newOwner",
          "type": "address"
        }
      ],
      "name": "transferOwnership",
      "outputs": [],
      "stateMutability": "nonpayable",
      "type": "function"
    },
    {
      "inputs": [],
      "name": "unpause",
      "outputs": [],
      "stateMutability": "nonpayable",
      "type": "function"
    }
  ],
  "transactionHash": "0x19be76bb090e7124711545635124330ec746e7422ae507ffd9dab2d5b5d89cba",
  "args": [],
  "solcInputHash": "aa474d6ab1b575b4acade885b25a70e1",
  "bytecode": "0x60806040523480156200001157600080fd5b5060405180604001604052806005815260200164109c99585960da1b81525060405180604001604052806005815260200164109491505160da1b81525081600390805190602001906200006692919062000488565b5080516200007c90600490602084019062000488565b50506005805460ff19166012179055506000620000986200011f565b600a80546001600160a01b0319166001600160a01b038316908117909155604051919250906000907f8be0079c531659141344cd1fd0a4f28419497f9722a3daafe3b4186f6b6457e0908290a350600a805460ff60a01b1916905562000119336200010262000123565b60ff16600a0a620186a0026200012c60201b60201c565b62000524565b3390565b60055460ff1690565b6001600160a01b03821662000188576040805162461bcd60e51b815260206004820152601f60248201527f45524332303a206d696e7420746f20746865207a65726f206164647265737300604482015290519081900360640190fd5b62000196600083836200023b565b620001b281600254620002a860201b62000bb31790919060201c565b6002556001600160a01b03821660009081526020818152604090912054620001e591839062000bb3620002a8821b17901c565b6001600160a01b0383166000818152602081815260408083209490945583518581529351929391927fddf252ad1be2c89b69c2b068fc378daa952ba7f163c4a11628f55a4df523b3ef9281900390910190a35050565b620002456200030a565b156200028b576040805162461bcd60e51b815260206004820152601060248201526f14185d5cd8589b194e881c185d5cd95960821b604482015290519081900360640190fd5b620002a38383836200031a60201b62000c141760201c565b505050565b60008282018381101562000303576040805162461bcd60e51b815260206004820152601b60248201527f536166654d6174683a206164646974696f6e206f766572666c6f770000000000604482015290519081900360640190fd5b9392505050565b600a54600160a01b900460ff1690565b62000332838383620002a360201b620008901760201c565b6001600160a01b0383166200035c576200034c8262000387565b62000356620003b8565b620002a3565b6001600160a01b03821662000376576200034c8362000387565b620003818362000387565b620002a3825b6001600160a01b0381166000908152600660205260409020620003b590620003af83620003ca565b620003e9565b50565b620003c86007620003af62000445565b565b6001600160a01b0381166000908152602081905260409020545b919050565b60006200040260096200044b60201b62000c6c1760201c565b90508062000410846200044f565b1015620002a3578254600180820185556000858152602080822090930193909355938401805494850181558252902090910155565b60025490565b5490565b80546000906200046257506000620003e4565b8154829060001981019081106200047557fe5b90600052602060002001549050620003e4565b828054600181600116156101000203166002900490600052602060002090601f016020900481019282601f10620004cb57805160ff1916838001178555620004fb565b82800160010185558215620004fb579182015b82811115620004fb578251825591602001919060010190620004de565b50620005099291506200050d565b5090565b5b808211156200050957600081556001016200050e565b6117db80620005346000396000f3fe608060405234801561001057600080fd5b506004361061014d5760003560e01c806370a08231116100c35780639711715a1161007c5780639711715a146103be578063981b24d0146103c6578063a457c2d7146103e3578063a9059cbb1461040f578063dd62ed3e1461043b578063f2fde38b146104695761014d565b806370a0823114610330578063715018a61461035657806379cc67901461035e5780638456cb591461038a5780638da5cb5b1461039257806395d89b41146103b65761014d565b80633950935111610115578063395093511461027d5780633f4ba83a146102a957806340c10f19146102b357806342966c68146102df5780634ee2cd7e146102fc5780635c975abb146103285761014d565b806306fdde0314610152578063095ea7b3146101cf57806318160ddd1461020f57806323b872dd14610229578063313ce5671461025f575b600080fd5b61015a61048f565b6040805160208082528351818301528351919283929083019185019080838360005b8381101561019457818101518382015260200161017c565b50505050905090810190601f1680156101c15780820380516001836020036101000a031916815260200191505b509250505060405180910390f35b6101fb600480360360408110156101e557600080fd5b506001600160a01b038135169060200135610525565b604080519115158252519081900360200190f35b610217610543565b60408051918252519081900360200190f35b6101fb6004803603606081101561023f57600080fd5b506001600160a01b03813581169160208101359091169060400135610549565b6102676105d0565b6040805160ff9092168252519081900360200190f35b6101fb6004803603604081101561029357600080fd5b506001600160a01b0381351690602001356105d9565b6102b1610627565b005b6102b1600480360360408110156102c957600080fd5b506001600160a01b038135169060200135610693565b6102b1600480360360208110156102f557600080fd5b5035610703565b6102176004803603604081101561031257600080fd5b506001600160a01b038135169060200135610717565b6101fb610760565b6102176004803603602081101561034657600080fd5b50356001600160a01b0316610770565b6102b161078f565b6102b16004803603604081101561037457600080fd5b506001600160a01b03813516906020013561083b565b6102b1610895565b61039a6108ff565b604080516001600160a01b039092168252519081900360200190f35b61015a61090e565b6102b161096f565b610217600480360360208110156103dc57600080fd5b50356109d9565b6101fb600480360360408110156103f957600080fd5b506001600160a01b038135169060200135610a09565b6101fb6004803603604081101561042557600080fd5b506001600160a01b038135169060200135610a71565b6102176004803603604081101561045157600080fd5b506001600160a01b0381358116916020013516610a85565b6102b16004803603602081101561047f57600080fd5b50356001600160a01b0316610ab0565b60038054604080516020601f600260001961010060018816150201909516949094049384018190048102820181019092528281526060939092909183018282801561051b5780601f106104f05761010080835404028352916020019161051b565b820191906000526020600020905b8154815290600101906020018083116104fe57829003601f168201915b5050505050905090565b6000610539610532610c70565b8484610c74565b5060015b92915050565b60025490565b6000610556848484610d60565b6105c684610562610c70565b6105c1856040518060600160405280602881526020016116ab602891396001600160a01b038a166000908152600160205260408120906105a0610c70565b6001600160a01b031681526020810191909152604001600020549190610ebb565b610c74565b5060019392505050565b60055460ff1690565b60006105396105e6610c70565b846105c185600160006105f7610c70565b6001600160a01b03908116825260208083019390935260409182016000908120918c168152925290205490610bb3565b61062f610c70565b6001600160a01b03166106406108ff565b6001600160a01b031614610689576040805162461bcd60e51b815260206004820181905260248201526000805160206116d3833981519152604482015290519081900360640190fd5b610691610f52565b565b61069b610c70565b6001600160a01b03166106ac6108ff565b6001600160a01b0316146106f5576040805162461bcd60e51b815260206004820181905260248201526000805160206116d3833981519152604482015290519081900360640190fd5b6106ff8282610ff5565b5050565b61071461070e610c70565b826110e5565b50565b6001600160a01b03821660009081526006602052604081208190819061073e9085906111e1565b91509150816107555761075085610770565b610757565b805b95945050505050565b600a54600160a01b900460ff1690565b6001600160a01b0381166000908152602081905260409020545b919050565b610797610c70565b6001600160a01b03166107a86108ff565b6001600160a01b0316146107f1576040805162461bcd60e51b815260206004820181905260248201526000805160206116d3833981519152604482015290519081900360640190fd5b600a546040516000916001600160a01b0316907f8be0079c531659141344cd1fd0a4f28419497f9722a3daafe3b4186f6b6457e0908390a3600a80546001600160a01b0319169055565b6000610872826040518060600160405280602481526020016116f36024913961086b86610866610c70565b610a85565b9190610ebb565b905061088683610880610c70565b83610c74565b61089083836110e5565b505050565b61089d610c70565b6001600160a01b03166108ae6108ff565b6001600160a01b0316146108f7576040805162461bcd60e51b815260206004820181905260248201526000805160206116d3833981519152604482015290519081900360640190fd5b6106916112de565b600a546001600160a01b031690565b60048054604080516020601f600260001961010060018816150201909516949094049384018190048102820181019092528281526060939092909183018282801561051b5780601f106104f05761010080835404028352916020019161051b565b610977610c70565b6001600160a01b03166109886108ff565b6001600160a01b0316146109d1576040805162461bcd60e51b815260206004820181905260248201526000805160206116d3833981519152604482015290519081900360640190fd5b610714611367565b60008060006109e98460076111e1565b91509150816109ff576109fa610543565b610a01565b805b949350505050565b6000610539610a16610c70565b846105c1856040518060600160405280602581526020016117816025913960016000610a40610c70565b6001600160a01b03908116825260208083019390935260409182016000908120918d16815292529020549190610ebb565b6000610539610a7e610c70565b8484610d60565b6001600160a01b03918216600090815260016020908152604080832093909416825291909152205490565b610ab8610c70565b6001600160a01b0316610ac96108ff565b6001600160a01b031614610b12576040805162461bcd60e51b815260206004820181905260248201526000805160206116d3833981519152604482015290519081900360640190fd5b6001600160a01b038116610b575760405162461bcd60e51b815260040180806020018281038252602681526020018061163d6026913960400191505060405180910390fd5b600a546040516001600160a01b038084169216907f8be0079c531659141344cd1fd0a4f28419497f9722a3daafe3b4186f6b6457e090600090a3600a80546001600160a01b0319166001600160a01b0392909216919091179055565b600082820183811015610c0d576040805162461bcd60e51b815260206004820152601b60248201527f536166654d6174683a206164646974696f6e206f766572666c6f770000000000604482015290519081900360640190fd5b9392505050565b610c1f838383610890565b6001600160a01b038316610c4357610c36826113bb565b610c3e6113e5565b610890565b6001600160a01b038216610c5a57610c36836113bb565b610c63836113bb565b610890826113bb565b5490565b3390565b6001600160a01b038316610cb95760405162461bcd60e51b815260040180806020018281038252602481526020018061175d6024913960400191505060405180910390fd5b6001600160a01b038216610cfe5760405162461bcd60e51b81526004018080602001828103825260228152602001806116636022913960400191505060405180910390fd5b6001600160a01b03808416600081815260016020908152604080832094871680845294825291829020859055815185815291517f8c5be1e5ebec7d5bd14f71427d1e84f3dd0314c0f7b2291e5b200ac8c7c3b9259281900390910190a3505050565b6001600160a01b038316610da55760405162461bcd60e51b81526004018080602001828103825260258152602001806117386025913960400191505060405180910390fd5b6001600160a01b038216610dea5760405162461bcd60e51b81526004018080602001828103825260238152602001806115f86023913960400191505060405180910390fd5b610df58383836113f2565b610e3281604051806060016040528060268152602001611685602691396001600160a01b0386166000908152602081905260409020549190610ebb565b6001600160a01b038085166000908152602081905260408082209390935590841681522054610e619082610bb3565b6001600160a01b038084166000818152602081815260409182902094909455805185815290519193928716927fddf252ad1be2c89b69c2b068fc378daa952ba7f163c4a11628f55a4df523b3ef92918290030190a3505050565b60008184841115610f4a5760405162461bcd60e51b81526004018080602001828103825283818151815260200191508051906020019080838360005b83811015610f0f578181015183820152602001610ef7565b50505050905090810190601f168015610f3c5780820380516001836020036101000a031916815260200191505b509250505060405180910390fd5b505050900390565b610f5a610760565b610fa2576040805162461bcd60e51b815260206004820152601460248201527314185d5cd8589b194e881b9bdd081c185d5cd95960621b604482015290519081900360640190fd5b600a805460ff60a01b191690557f5db9ee0a495bf2e6ff9c91a7834c1ba4fdd244a5e8aa4e537bd38aeae4b073aa610fd8610c70565b604080516001600160a01b039092168252519081900360200190a1565b6001600160a01b038216611050576040805162461bcd60e51b815260206004820152601f60248201527f45524332303a206d696e7420746f20746865207a65726f206164647265737300604482015290519081900360640190fd5b61105c600083836113f2565b6002546110699082610bb3565b6002556001600160a01b03821660009081526020819052604090205461108f9082610bb3565b6001600160a01b0383166000818152602081815260408083209490945583518581529351929391927fddf252ad1be2c89b69c2b068fc378daa952ba7f163c4a11628f55a4df523b3ef9281900390910190a35050565b6001600160a01b03821661112a5760405162461bcd60e51b81526004018080602001828103825260218152602001806117176021913960400191505060405180910390fd5b611136826000836113f2565b6111738160405180606001604052806022815260200161161b602291396001600160a01b0385166000908152602081905260409020549190610ebb565b6001600160a01b038316600090815260208190526040902055600254611199908261144a565b6002556040805182815290516000916001600160a01b038516917fddf252ad1be2c89b69c2b068fc378daa952ba7f163c4a11628f55a4df523b3ef9181900360200190a35050565b60008060008411611232576040805162461bcd60e51b815260206004820152601660248201527504552433230536e617073686f743a20696420697320360541b604482015290519081900360640190fd5b61123c6009610c6c565b841115611290576040805162461bcd60e51b815260206004820152601d60248201527f4552433230536e617073686f743a206e6f6e6578697374656e74206964000000604482015290519081900360640190fd5b600061129c84866114a7565b84549091508114156112b55760008092509250506112d7565b60018460010182815481106112c657fe5b906000526020600020015492509250505b9250929050565b6112e6610760565b1561132b576040805162461bcd60e51b815260206004820152601060248201526f14185d5cd8589b194e881c185d5cd95960821b604482015290519081900360640190fd5b600a805460ff60a01b1916600160a01b1790557f62e78cea01bee320cd4e420270b5ea74000d11b0c9f74754ebdbfc544b05a258610fd8610c70565b60006113736009611548565b600061137f6009610c6c565b6040805182815290519192507f8030e83b04d87bef53480e26263266d6ca66863aa8506aca6f2559d18aa1cb67919081900360200190a1905090565b6001600160a01b0381166000908152600660205260409020610714906113e083610770565b611551565b61069160076113e0610543565b6113fa610760565b1561143f576040805162461bcd60e51b815260206004820152601060248201526f14185d5cd8589b194e881c185d5cd95960821b604482015290519081900360640190fd5b610890838383610c14565b6000828211156114a1576040805162461bcd60e51b815260206004820152601e60248201527f536166654d6174683a207375627472616374696f6e206f766572666c6f770000604482015290519081900360640190fd5b50900390565b81546000906114b85750600061053d565b82546000905b808210156115075760006114d2838361159d565b9050848682815481106114e157fe5b906000526020600020015411156114fa57809150611501565b8060010192505b506114be565b60008211801561152f57508385600184038154811061152257fe5b9060005260206000200154145b15611540575060001901905061053d565b50905061053d565b80546001019055565b600061155d6009610c6c565b905080611569846115c2565b1015610890578254600180820185556000858152602080822090930193909355938401805494850181558252902090910155565b600060028083066002850601816115b057fe5b04600283046002850401019392505050565b80546000906115d35750600061078a565b8154829060001981019081106115e557fe5b9060005260206000200154905061078a56fe45524332303a207472616e7366657220746f20746865207a65726f206164647265737345524332303a206275726e20616d6f756e7420657863656564732062616c616e63654f776e61626c653a206e6577206f776e657220697320746865207a65726f206164647265737345524332303a20617070726f766520746f20746865207a65726f206164647265737345524332303a207472616e7366657220616d6f756e7420657863656564732062616c616e636545524332303a207472616e7366657220616d6f756e74206578636565647320616c6c6f77616e63654f776e61626c653a2063616c6c6572206973206e6f7420746865206f776e657245524332303a206275726e20616d6f756e74206578636565647320616c6c6f77616e636545524332303a206275726e2066726f6d20746865207a65726f206164647265737345524332303a207472616e736665722066726f6d20746865207a65726f206164647265737345524332303a20617070726f76652066726f6d20746865207a65726f206164647265737345524332303a2064656372656173656420616c6c6f77616e63652062656c6f77207a65726fa2646970667358221220d7bfb9cdd67a1fc45549ee6a2f11bbe69be792aa4e8a219bdfa3ef62969212a864736f6c63430007000033",
  "devdoc": {
    "kind": "dev",
    "methods": {
      "allowance(address,address)": {
        "details": "See {IERC20-allowance}."
      },
      "approve(address,uint256)": {
        "details": "See {IERC20-approve}. Requirements: - `spender` cannot be the zero address."
      },
      "balanceOf(address)": {
        "details": "See {IERC20-balanceOf}."
      },
      "balanceOfAt(address,uint256)": {
        "details": "Retrieves the balance of `account` at the time `snapshotId` was created."
      },
      "burn(uint256)": {
        "details": "Destroys `amount` tokens from the caller. See {ERC20-_burn}."
      },
      "burnFrom(address,uint256)": {
        "details": "Destroys `amount` tokens from `account`, deducting from the caller's allowance. See {ERC20-_burn} and {ERC20-allowance}. Requirements: - the caller must have allowance for ``accounts``'s tokens of at least `amount`."
      },
      "decimals()": {
        "details": "Returns the number of decimals used to get its user representation. For example, if `decimals` equals `2`, a balance of `505` tokens should be displayed to a user as `5,05` (`505 / 10 ** 2`). Tokens usually opt for a value of 18, imitating the relationship between Ether and Wei. This is the value {ERC20} uses, unless {_setupDecimals} is called. NOTE: This information is only used for _display_ purposes: it in no way affects any of the arithmetic of the contract, including {IERC20-balanceOf} and {IERC20-transfer}."
      },
      "decreaseAllowance(address,uint256)": {
        "details": "Atomically decreases the allowance granted to `spender` by the caller. This is an alternative to {approve} that can be used as a mitigation for problems described in {IERC20-approve}. Emits an {Approval} event indicating the updated allowance. Requirements: - `spender` cannot be the zero address. - `spender` must have allowance for the caller of at least `subtractedValue`."
      },
      "increaseAllowance(address,uint256)": {
        "details": "Atomically increases the allowance granted to `spender` by the caller. This is an alternative to {approve} that can be used as a mitigation for problems described in {IERC20-approve}. Emits an {Approval} event indicating the updated allowance. Requirements: - `spender` cannot be the zero address."
      },
      "name()": {
        "details": "Returns the name of the token."
      },
      "owner()": {
        "details": "Returns the address of the current owner."
      },
      "paused()": {
        "details": "Returns true if the contract is paused, and false otherwise."
      },
      "renounceOwnership()": {
        "details": "Leaves the contract without owner. It will not be possible to call `onlyOwner` functions anymore. Can only be called by the current owner. NOTE: Renouncing ownership will leave the contract without an owner, thereby removing any functionality that is only available to the owner."
      },
      "symbol()": {
        "details": "Returns the symbol of the token, usually a shorter version of the name."
      },
      "totalSupply()": {
        "details": "See {IERC20-totalSupply}."
      },
      "totalSupplyAt(uint256)": {
        "details": "Retrieves the total supply at the time `snapshotId` was created."
      },
      "transfer(address,uint256)": {
        "details": "See {IERC20-transfer}. Requirements: - `recipient` cannot be the zero address. - the caller must have a balance of at least `amount`."
      },
      "transferFrom(address,address,uint256)": {
        "details": "See {IERC20-transferFrom}. Emits an {Approval} event indicating the updated allowance. This is not required by the EIP. See the note at the beginning of {ERC20}. Requirements: - `sender` and `recipient` cannot be the zero address. - `sender` must have a balance of at least `amount`. - the caller must have allowance for ``sender``'s tokens of at least `amount`."
      },
      "transferOwnership(address)": {
        "details": "Transfers ownership of the contract to a new account (`newOwner`). Can only be called by the current owner."
      }
    },
    "version": 1
  },
  "userdoc": {
    "kind": "user",
    "methods": {},
    "version": 1
  },
  "storageLayout": {
    "storage": [
      {
        "astId": 623,
        "contract": "contracts/breadtoken.sol:Bread",
        "label": "_balances",
        "offset": 0,
        "slot": "0",
        "type": "t_mapping(t_address,t_uint256)"
      },
      {
        "astId": 629,
        "contract": "contracts/breadtoken.sol:Bread",
        "label": "_allowances",
        "offset": 0,
        "slot": "1",
        "type": "t_mapping(t_address,t_mapping(t_address,t_uint256))"
      },
      {
        "astId": 631,
        "contract": "contracts/breadtoken.sol:Bread",
        "label": "_totalSupply",
        "offset": 0,
        "slot": "2",
        "type": "t_uint256"
      },
      {
        "astId": 633,
        "contract": "contracts/breadtoken.sol:Bread",
        "label": "_name",
        "offset": 0,
        "slot": "3",
        "type": "t_string_storage"
      },
      {
        "astId": 635,
        "contract": "contracts/breadtoken.sol:Bread",
        "label": "_symbol",
        "offset": 0,
        "slot": "4",
        "type": "t_string_storage"
      },
      {
        "astId": 637,
        "contract": "contracts/breadtoken.sol:Bread",
        "label": "_decimals",
        "offset": 0,
        "slot": "5",
        "type": "t_uint8"
      },
      {
        "astId": 1198,
        "contract": "contracts/breadtoken.sol:Bread",
        "label": "_accountBalanceSnapshots",
        "offset": 0,
        "slot": "6",
        "type": "t_mapping(t_address,t_struct(Snapshots)1194_storage)"
      },
      {
        "astId": 1200,
        "contract": "contracts/breadtoken.sol:Bread",
        "label": "_totalSupplySnapshots",
        "offset": 0,
        "slot": "7",
        "type": "t_struct(Snapshots)1194_storage"
      },
      {
        "astId": 1202,
        "contract": "contracts/breadtoken.sol:Bread",
        "label": "_currentSnapshotId",
        "offset": 0,
        "slot": "9",
        "type": "t_struct(Counter)3114_storage"
      },
      {
        "astId": 7,
        "contract": "contracts/breadtoken.sol:Bread",
        "label": "_owner",
        "offset": 0,
        "slot": "10",
        "type": "t_address"
      },
      {
        "astId": 4224,
        "contract": "contracts/breadtoken.sol:Bread",
        "label": "_paused",
        "offset": 20,
        "slot": "10",
        "type": "t_bool"
      }
    ],
    "types": {
      "t_address": {
        "encoding": "inplace",
        "label": "address",
        "numberOfBytes": "20"
      },
      "t_array(t_uint256)dyn_storage": {
        "base": "t_uint256",
        "encoding": "dynamic_array",
        "label": "uint256[]",
        "numberOfBytes": "32"
      },
      "t_bool": {
        "encoding": "inplace",
        "label": "bool",
        "numberOfBytes": "1"
      },
      "t_mapping(t_address,t_mapping(t_address,t_uint256))": {
        "encoding": "mapping",
        "key": "t_address",
        "label": "mapping(address => mapping(address => uint256))",
        "numberOfBytes": "32",
        "value": "t_mapping(t_address,t_uint256)"
      },
      "t_mapping(t_address,t_struct(Snapshots)1194_storage)": {
        "encoding": "mapping",
        "key": "t_address",
        "label": "mapping(address => struct ERC20Snapshot.Snapshots)",
        "numberOfBytes": "32",
        "value": "t_struct(Snapshots)1194_storage"
      },
      "t_mapping(t_address,t_uint256)": {
        "encoding": "mapping",
        "key": "t_address",
        "label": "mapping(address => uint256)",
        "numberOfBytes": "32",
        "value": "t_uint256"
      },
      "t_string_storage": {
        "encoding": "bytes",
        "label": "string",
        "numberOfBytes": "32"
      },
      "t_struct(Counter)3114_storage": {
        "encoding": "inplace",
        "label": "struct Counters.Counter",
        "members": [
          {
            "astId": 3113,
            "contract": "contracts/breadtoken.sol:Bread",
            "label": "_value",
            "offset": 0,
            "slot": "0",
            "type": "t_uint256"
          }
        ],
        "numberOfBytes": "32"
      },
      "t_struct(Snapshots)1194_storage": {
        "encoding": "inplace",
        "label": "struct ERC20Snapshot.Snapshots",
        "members": [
          {
            "astId": 1190,
            "contract": "contracts/breadtoken.sol:Bread",
            "label": "ids",
            "offset": 0,
            "slot": "0",
            "type": "t_array(t_uint256)dyn_storage"
          },
          {
            "astId": 1193,
            "contract": "contracts/breadtoken.sol:Bread",
            "label": "values",
            "offset": 0,
            "slot": "1",
            "type": "t_array(t_uint256)dyn_storage"
          }
        ],
        "numberOfBytes": "64"
      },
      "t_uint256": {
        "encoding": "inplace",
        "label": "uint256",
        "numberOfBytes": "32"
      },
      "t_uint8": {
        "encoding": "inplace",
        "label": "uint8",
        "numberOfBytes": "1"
      }
    }
  }
}