{
  "_format": "hh-sol-artifact-1",
  "contractName": "SampleBread",
  "sourceName": "contracts/samplebread.sol",
  "abi": [
    {
      "anonymous": false,
      "inputs": [
        {
          "indexed": true,
          "internalType": "uint256",
          "name": "propertyId",
          "type": "uint256"
        },
        {
          "indexed": true,
          "internalType": "uint256",
          "name": "bookingId",
          "type": "uint256"
        }
      ],
      "name": "NewBooking",
      "type": "event"
    },
    {
      "anonymous": false,
      "inputs": [
        {
          "indexed": true,
          "internalType": "uint256",
          "name": "sampleId",
          "type": "uint256"
        }
      ],
      "name": "NewSample",
      "type": "event"
    },
    {
      "inputs": [],
      "name": "bookingId",
      "outputs": [
        {
          "internalType": "uint256",
          "name": "",
          "type": "uint256"
        }
      ],
      "stateMutability": "view",
      "type": "function"
    },
    {
      "inputs": [
        {
          "internalType": "uint256",
          "name": "",
          "type": "uint256"
        }
      ],
      "name": "bookings",
      "outputs": [
        {
          "internalType": "uint256",
          "name": "sampleId",
          "type": "uint256"
        },
        {
          "internalType": "uint256",
          "name": "checkInDate",
          "type": "uint256"
        },
        {
          "internalType": "uint256",
          "name": "checkOutDate",
          "type": "uint256"
        },
        {
          "internalType": "address",
          "name": "user",
          "type": "address"
        }
      ],
      "stateMutability": "view",
      "type": "function"
    },
    {
      "inputs": [
        {
          "internalType": "uint256",
          "name": "_sampleId",
          "type": "uint256"
        }
      ],
      "name": "markSampleAsInactive",
      "outputs": [],
      "stateMutability": "nonpayable",
      "type": "function"
    },
    {
      "inputs": [
        {
          "internalType": "string",
          "name": "name",
          "type": "string"
        },
        {
          "internalType": "string",
          "name": "description",
          "type": "string"
        },
        {
          "internalType": "string",
          "name": "metadata",
          "type": "string"
        },
        {
          "internalType": "uint256",
          "name": "price",
          "type": "uint256"
        }
      ],
      "name": "rentOutSample",
      "outputs": [],
      "stateMutability": "nonpayable",
      "type": "function"
    },
    {
      "inputs": [
        {
          "internalType": "uint256",
          "name": "_sampleId",
          "type": "uint256"
        },
        {
          "internalType": "uint256",
          "name": "checkInDate",
          "type": "uint256"
        },
        {
          "internalType": "uint256",
          "name": "checkOutDate",
          "type": "uint256"
        }
      ],
      "name": "rentSample",
      "outputs": [],
      "stateMutability": "payable",
      "type": "function"
    },
    {
      "inputs": [],
      "name": "sampleId",
      "outputs": [
        {
          "internalType": "uint256",
          "name": "",
          "type": "uint256"
        }
      ],
      "stateMutability": "view",
      "type": "function"
    },
    {
      "inputs": [
        {
          "internalType": "uint256",
          "name": "",
          "type": "uint256"
        }
      ],
      "name": "samples",
      "outputs": [
        {
          "internalType": "string",
          "name": "name",
          "type": "string"
        },
        {
          "internalType": "string",
          "name": "description",
          "type": "string"
        },
        {
          "internalType": "string",
          "name": "metadata",
          "type": "string"
        },
        {
          "internalType": "bool",
          "name": "isActive",
          "type": "bool"
        },
        {
          "internalType": "uint256",
          "name": "price",
          "type": "uint256"
        },
        {
          "internalType": "address",
          "name": "owner",
          "type": "address"
        }
      ],
      "stateMutability": "view",
      "type": "function"
    }
  ],
  "bytecode": "0x608060405234801561001057600080fd5b50610d0d806100206000396000f3fe6080604052600436106100705760003560e01c80631dab301e1161004e5780631dab301e146100e75780639c8ab971146101175780639d8d25dc1461012c578063e08b062f1461014c57610070565b806307e721291461007557806309e45a59146100b05780630a10df7c146100d2575b600080fd5b34801561008157600080fd5b50610095610090366004610a06565b61016c565b6040516100a796959493929190610a94565b60405180910390f35b3480156100bc57600080fd5b506100c5610347565b6040516100a79190610bf2565b3480156100de57600080fd5b506100c561034d565b3480156100f357600080fd5b50610107610102366004610a06565b610353565b6040516100a79493929190610bfb565b61012a610125366004610a1e565b610385565b005b34801561013857600080fd5b5061012a610147366004610a06565b6104ae565b34801561015857600080fd5b5061012a61016736600461097a565b610504565b60016020526000908152604090208054819061018790610c55565b80601f01602080910402602001604051908101604052809291908181526020018280546101b390610c55565b80156102005780601f106101d557610100808354040283529160200191610200565b820191906000526020600020905b8154815290600101906020018083116101e357829003601f168201915b50505050509080600101805461021590610c55565b80601f016020809104026020016040519081016040528092919081815260200182805461024190610c55565b801561028e5780601f106102635761010080835404028352916020019161028e565b820191906000526020600020905b81548152906001019060200180831161027157829003601f168201915b5050505050908060020180546102a390610c55565b80601f01602080910402602001604051908101604052809291908181526020018280546102cf90610c55565b801561031c5780601f106102f15761010080835404028352916020019161031c565b820191906000526020600020905b8154815290600101906020018083116102ff57829003601f168201915b5050505060038301546004840154600590940154929360ff909116929091506001600160a01b031686565b60005481565b60025481565b60036020819052600091825260409091208054600182015460028301549290930154909291906001600160a01b031684565b60008381526001602081905260409091206003810154909160ff9091161515146103ca5760405162461bcd60e51b81526004016103c190610af5565b60405180910390fd5b825b8281101561044d578160060181815481106103f757634e487b7160e01b600052603260045260246000fd5b90600052602060002090602091828204019190069054906101000a900460ff16151560011515141561043b5760405162461bcd60e51b81526004016103c190610b6d565b8061044581610c90565b9150506103cc565b506104588383610c3e565b81600401546104679190610c1f565b34146104855760405162461bcd60e51b81526004016103c190610bbb565b600581015461049d906001600160a01b031634610664565b6104a884848461069c565b50505050565b6000818152600160205260409020600501546001600160a01b031633146104e75760405162461bcd60e51b81526004016103c190610b36565b50600080548152600160205260409020600301805460ff19169055565b6040805160e081018252858152602080820186905281830185905260016060830152608082018490523360a0830152825161016d808252612dc0820190945260009360c08401928201612da08036833750505090526000805481526001602090815260409091208251805193945084939192610585928492909101906107c4565b50602082810151805161059e92600185019201906107c4565b50604082015180516105ba9160028401916020909101906107c4565b50606082015160038201805460ff19169115159190911790556080820151600482015560a08201516005820180546001600160a01b0319166001600160a01b0390921691909117905560c0820151805161061e916006840191602090910190610848565b50506000805491508061063083610c90565b909155506040517fa171907155458353ed530546f17c83494bba30b6a021aeffbf57e01b0b3acc0290600090a25050505050565b60405182906001600160a01b0382169083156108fc029084906000818181858888f193505050501580156104a8573d6000803e3d6000fd5b6040805160808101825284815260208082018581528284018581523360608501908152600280546000908152600380875288822097518855945160018089019190915593519187019190915590519490920180546001600160a01b0319166001600160a01b039095169490941790935586815291905220825b8281101561077e57600182600601828154811061074257634e487b7160e01b600052603260045260246000fd5b90600052602060002090602091828204019190066101000a81548160ff021916908315150217905550808061077690610c90565b915050610715565b506002805490600061078f83610c90565b9091555060405185907f4f65de66b4cd3e97fb943ca503efa62b328170ad1a0aac0e9c979a164a317b3890600090a350505050565b8280546107d090610c55565b90600052602060002090601f0160209004810192826107f25760008555610838565b82601f1061080b57805160ff1916838001178555610838565b82800160010185558215610838579182015b8281111561083857825182559160200191906001019061081d565b506108449291506108e4565b5090565b82805482825590600052602060002090601f016020900481019282156108385791602002820160005b838211156108ae57835183826101000a81548160ff0219169083151502179055509260200192600101602081600001049283019260010302610871565b80156108db5782816101000a81549060ff02191690556001016020816000010492830192600103026108ae565b50506108449291505b5b8082111561084457600081556001016108e5565b600082601f830112610909578081fd5b813567ffffffffffffffff8082111561092457610924610cc1565b604051601f8301601f19168101602001828111828210171561094857610948610cc1565b60405282815284830160200186101561095f578384fd5b82602086016020830137918201602001929092529392505050565b6000806000806080858703121561098f578384fd5b843567ffffffffffffffff808211156109a6578586fd5b6109b2888389016108f9565b955060208701359150808211156109c7578485fd5b6109d3888389016108f9565b945060408701359150808211156109e8578384fd5b506109f5878288016108f9565b949793965093946060013593505050565b600060208284031215610a17578081fd5b5035919050565b600080600060608486031215610a32578283fd5b505081359360208301359350604090920135919050565b60008151808452815b81811015610a6e57602081850181015186830182015201610a52565b81811115610a7f5782602083870101525b50601f01601f19169290920160200192915050565b600060c08252610aa760c0830189610a49565b8281036020840152610ab98189610a49565b90508281036040840152610acd8188610a49565b9515156060840152505060808101929092526001600160a01b031660a0909101529392505050565b60208082526021908201527f73616d706c6520776974682074686973204944206973206e6f742061637469766040820152606560f81b606082015260800190565b60208082526017908201527f54484953204953204e4f5420594f55522053414d504c45000000000000000000604082015260600190565b6020808252602e908201527f73616d706c65206973206e6f7420617661696c61626c6520666f72207468652060408201526d73656c656374656420646174657360901b606082015260800190565b60208082526017908201527f53656e7420696e73756666696369656e742066756e6473000000000000000000604082015260600190565b90815260200190565b938452602084019290925260408301526001600160a01b0316606082015260800190565b6000816000190483118215151615610c3957610c39610cab565b500290565b600082821015610c5057610c50610cab565b500390565b600281046001821680610c6957607f821691505b60208210811415610c8a57634e487b7160e01b600052602260045260246000fd5b50919050565b6000600019821415610ca457610ca4610cab565b5060010190565b634e487b7160e01b600052601160045260246000fd5b634e487b7160e01b600052604160045260246000fdfea26469706673582212205bc7e57a8fc6620bcf3b995d8e797d695b68040f14d3159bf4e7bfa24c67a7fa64736f6c63430008000033",
  "linkReferences": {},
  "deployedLinkReferences": {}
}