{
  "_format": "hh-sol-artifact-1",
  "contractName": "PbNFT",
  "sourceName": "contracts/pbNFT.sol",
  "abi": [
    {
      "inputs": [],
      "stateMutability": "nonpayable",
      "type": "constructor"
    },
    {
      "anonymous": false,
      "inputs": [
        {
          "indexed": true,
          "internalType": "address",
          "name": "owner",
          "type": "address"
        },
        {
          "indexed": true,
          "internalType": "address",
          "name": "approved",
          "type": "address"
        },
        {
          "indexed": true,
          "internalType": "uint256",
          "name": "tokenId",
          "type": "uint256"
        }
      ],
      "name": "Approval",
      "type": "event"
    },
    {
      "anonymous": false,
      "inputs": [
        {
          "indexed": true,
          "internalType": "address",
          "name": "owner",
          "type": "address"
        },
        {
          "indexed": true,
          "internalType": "address",
          "name": "operator",
          "type": "address"
        },
        {
          "indexed": false,
          "internalType": "bool",
          "name": "approved",
          "type": "bool"
        }
      ],
      "name": "ApprovalForAll",
      "type": "event"
    },
    {
      "anonymous": false,
      "inputs": [
        {
          "indexed": true,
          "internalType": "address",
          "name": "from",
          "type": "address"
        },
        {
          "indexed": true,
          "internalType": "uint256",
          "name": "tokenId",
          "type": "uint256"
        }
      ],
      "name": "NFTMinted",
      "type": "event"
    },
    {
      "anonymous": false,
      "inputs": [
        {
          "indexed": true,
          "internalType": "address",
          "name": "previousOwner",
          "type": "address"
        },
        {
          "indexed": true,
          "internalType": "address",
          "name": "newOwner",
          "type": "address"
        }
      ],
      "name": "OwnershipTransferred",
      "type": "event"
    },
    {
      "anonymous": false,
      "inputs": [
        {
          "indexed": true,
          "internalType": "address",
          "name": "from",
          "type": "address"
        },
        {
          "indexed": true,
          "internalType": "address",
          "name": "to",
          "type": "address"
        },
        {
          "indexed": true,
          "internalType": "uint256",
          "name": "tokenId",
          "type": "uint256"
        }
      ],
      "name": "Transfer",
      "type": "event"
    },
    {
      "inputs": [
        {
          "internalType": "address",
          "name": "to",
          "type": "address"
        },
        {
          "internalType": "uint256",
          "name": "tokenId",
          "type": "uint256"
        }
      ],
      "name": "approve",
      "outputs": [],
      "stateMutability": "nonpayable",
      "type": "function"
    },
    {
      "inputs": [
        {
          "internalType": "address",
          "name": "owner",
          "type": "address"
        }
      ],
      "name": "balanceOf",
      "outputs": [
        {
          "internalType": "uint256",
          "name": "",
          "type": "uint256"
        }
      ],
      "stateMutability": "view",
      "type": "function"
    },
    {
      "inputs": [],
      "name": "baseURI",
      "outputs": [
        {
          "internalType": "string",
          "name": "",
          "type": "string"
        }
      ],
      "stateMutability": "view",
      "type": "function"
    },
    {
      "inputs": [
        {
          "internalType": "uint256",
          "name": "",
          "type": "uint256"
        }
      ],
      "name": "breads",
      "outputs": [
        {
          "internalType": "address",
          "name": "createdBy",
          "type": "address"
        },
        {
          "internalType": "string",
          "name": "name",
          "type": "string"
        },
        {
          "internalType": "string",
          "name": "description",
          "type": "string"
        },
        {
          "internalType": "string",
          "name": "url",
          "type": "string"
        }
      ],
      "stateMutability": "view",
      "type": "function"
    },
    {
      "inputs": [
        {
          "internalType": "uint256",
          "name": "tokenId",
          "type": "uint256"
        }
      ],
      "name": "getApproved",
      "outputs": [
        {
          "internalType": "address",
          "name": "",
          "type": "address"
        }
      ],
      "stateMutability": "view",
      "type": "function"
    },
    {
      "inputs": [
        {
          "internalType": "address",
          "name": "owner",
          "type": "address"
        },
        {
          "internalType": "address",
          "name": "operator",
          "type": "address"
        }
      ],
      "name": "isApprovedForAll",
      "outputs": [
        {
          "internalType": "bool",
          "name": "",
          "type": "bool"
        }
      ],
      "stateMutability": "view",
      "type": "function"
    },
    {
      "inputs": [
        {
          "internalType": "address",
          "name": "owner",
          "type": "address"
        },
        {
          "internalType": "string",
          "name": "_name",
          "type": "string"
        },
        {
          "internalType": "string",
          "name": "_desc",
          "type": "string"
        },
        {
          "internalType": "string",
          "name": "_url",
          "type": "string"
        }
      ],
      "name": "mint",
      "outputs": [],
      "stateMutability": "nonpayable",
      "type": "function"
    },
    {
      "inputs": [],
      "name": "name",
      "outputs": [
        {
          "internalType": "string",
          "name": "",
          "type": "string"
        }
      ],
      "stateMutability": "view",
      "type": "function"
    },
    {
      "inputs": [],
      "name": "owner",
      "outputs": [
        {
          "internalType": "address",
          "name": "",
          "type": "address"
        }
      ],
      "stateMutability": "view",
      "type": "function"
    },
    {
      "inputs": [
        {
          "internalType": "uint256",
          "name": "tokenId",
          "type": "uint256"
        }
      ],
      "name": "ownerOf",
      "outputs": [
        {
          "internalType": "address",
          "name": "",
          "type": "address"
        }
      ],
      "stateMutability": "view",
      "type": "function"
    },
    {
      "inputs": [],
      "name": "renounceOwnership",
      "outputs": [],
      "stateMutability": "nonpayable",
      "type": "function"
    },
    {
      "inputs": [
        {
          "internalType": "address",
          "name": "from",
          "type": "address"
        },
        {
          "internalType": "address",
          "name": "to",
          "type": "address"
        },
        {
          "internalType": "uint256",
          "name": "tokenId",
          "type": "uint256"
        }
      ],
      "name": "safeTransferFrom",
      "outputs": [],
      "stateMutability": "nonpayable",
      "type": "function"
    },
    {
      "inputs": [
        {
          "internalType": "address",
          "name": "from",
          "type": "address"
        },
        {
          "internalType": "address",
          "name": "to",
          "type": "address"
        },
        {
          "internalType": "uint256",
          "name": "tokenId",
          "type": "uint256"
        },
        {
          "internalType": "bytes",
          "name": "_data",
          "type": "bytes"
        }
      ],
      "name": "safeTransferFrom",
      "outputs": [],
      "stateMutability": "nonpayable",
      "type": "function"
    },
    {
      "inputs": [
        {
          "internalType": "address",
          "name": "operator",
          "type": "address"
        },
        {
          "internalType": "bool",
          "name": "approved",
          "type": "bool"
        }
      ],
      "name": "setApprovalForAll",
      "outputs": [],
      "stateMutability": "nonpayable",
      "type": "function"
    },
    {
      "inputs": [
        {
          "internalType": "bytes4",
          "name": "interfaceId",
          "type": "bytes4"
        }
      ],
      "name": "supportsInterface",
      "outputs": [
        {
          "internalType": "bool",
          "name": "",
          "type": "bool"
        }
      ],
      "stateMutability": "view",
      "type": "function"
    },
    {
      "inputs": [],
      "name": "symbol",
      "outputs": [
        {
          "internalType": "string",
          "name": "",
          "type": "string"
        }
      ],
      "stateMutability": "view",
      "type": "function"
    },
    {
      "inputs": [
        {
          "internalType": "uint256",
          "name": "index",
          "type": "uint256"
        }
      ],
      "name": "tokenByIndex",
      "outputs": [
        {
          "internalType": "uint256",
          "name": "",
          "type": "uint256"
        }
      ],
      "stateMutability": "view",
      "type": "function"
    },
    {
      "inputs": [
        {
          "internalType": "address",
          "name": "owner",
          "type": "address"
        },
        {
          "internalType": "uint256",
          "name": "index",
          "type": "uint256"
        }
      ],
      "name": "tokenOfOwnerByIndex",
      "outputs": [
        {
          "internalType": "uint256",
          "name": "",
          "type": "uint256"
        }
      ],
      "stateMutability": "view",
      "type": "function"
    },
    {
      "inputs": [
        {
          "internalType": "uint256",
          "name": "tokenId",
          "type": "uint256"
        }
      ],
      "name": "tokenURI",
      "outputs": [
        {
          "internalType": "string",
          "name": "",
          "type": "string"
        }
      ],
      "stateMutability": "view",
      "type": "function"
    },
    {
      "inputs": [],
      "name": "totalSupply",
      "outputs": [
        {
          "internalType": "uint256",
          "name": "",
          "type": "uint256"
        }
      ],
      "stateMutability": "view",
      "type": "function"
    },
    {
      "inputs": [
        {
          "internalType": "address",
          "name": "from",
          "type": "address"
        },
        {
          "internalType": "address",
          "name": "to",
          "type": "address"
        },
        {
          "internalType": "uint256",
          "name": "tokenId",
          "type": "uint256"
        }
      ],
      "name": "transferFrom",
      "outputs": [],
      "stateMutability": "nonpayable",
      "type": "function"
    },
    {
      "inputs": [
        {
          "internalType": "address",
          "name": "newOwner",
          "type": "address"
        }
      ],
      "name": "transferOwnership",
      "outputs": [],
      "stateMutability": "nonpayable",
      "type": "function"
    }
  ],
  "bytecode": "0x60806040523480156200001157600080fd5b5060405180604001604052806005815260200164141893919560da1b81525060405180604001604052806005815260200164141093919560da1b815250620000666301ffc9a760e01b6200015460201b60201c565b81516200007b906006906020850190620001f6565b50805162000091906007906020840190620001f6565b50620000a46380ac58cd60e01b62000154565b620000b6635b5e139f60e01b62000154565b620000c863780e9d6360e01b62000154565b5060009050620000d7620001d9565b600a80546001600160a01b0319166001600160a01b038316908117909155604051919250906000907f8be0079c531659141344cd1fd0a4f28419497f9722a3daafe3b4186f6b6457e0908290a350604080518082019091526007815266697066733a2f2f60c81b60208201526200014e90620001dd565b62000292565b6001600160e01b03198082161415620001b4576040805162461bcd60e51b815260206004820152601c60248201527f4552433136353a20696e76616c696420696e7465726661636520696400000000604482015290519081900360640190fd5b6001600160e01b0319166000908152602081905260409020805460ff19166001179055565b3390565b8051620001f2906009906020840190620001f6565b5050565b828054600181600116156101000203166002900490600052602060002090601f016020900481019282601f106200023957805160ff191683800117855562000269565b8280016001018555821562000269579182015b82811115620002695782518255916020019190600101906200024c565b50620002779291506200027b565b5090565b5b808211156200027757600081556001016200027c565b61244d80620002a26000396000f3fe608060405234801561001057600080fd5b50600436106101425760003560e01c80636c0360eb116100b8578063986e784b1161007c578063986e784b146104b6578063a22cb46514610627578063b88d4fde14610655578063c87b56dd14610719578063e985e9c514610736578063f2fde38b1461076457610142565b80636c0360eb1461047057806370a0823114610478578063715018a61461049e5780638da5cb5b146104a657806395d89b41146104ae57610142565b806323b872dd1161010a57806323b872dd146102805780632f745c59146102b657806342842e0e146102e25780634a0706be146103185780634f6ccce7146104365780636352211e1461045357610142565b806301ffc9a71461014757806306fdde0314610182578063081812fc146101ff578063095ea7b31461023857806318160ddd14610266575b600080fd5b61016e6004803603602081101561015d57600080fd5b50356001600160e01b03191661078a565b604080519115158252519081900360200190f35b61018a6107ad565b6040805160208082528351818301528351919283929083019185019080838360005b838110156101c45781810151838201526020016101ac565b50505050905090810190601f1680156101f15780820380516001836020036101000a031916815260200191505b509250505060405180910390f35b61021c6004803603602081101561021557600080fd5b5035610843565b604080516001600160a01b039092168252519081900360200190f35b6102646004803603604081101561024e57600080fd5b506001600160a01b0381351690602001356108a5565b005b61026e610980565b60408051918252519081900360200190f35b6102646004803603606081101561029657600080fd5b506001600160a01b03813581169160208101359091169060400135610991565b61026e600480360360408110156102cc57600080fd5b506001600160a01b0381351690602001356109e8565b610264600480360360608110156102f857600080fd5b506001600160a01b03813581169160208101359091169060400135610a13565b6102646004803603608081101561032e57600080fd5b6001600160a01b038235169190810190604081016020820135600160201b81111561035857600080fd5b82018360208201111561036a57600080fd5b803590602001918460018302840111600160201b8311171561038b57600080fd5b919390929091602081019035600160201b8111156103a857600080fd5b8201836020820111156103ba57600080fd5b803590602001918460018302840111600160201b831117156103db57600080fd5b919390929091602081019035600160201b8111156103f857600080fd5b82018360208201111561040a57600080fd5b803590602001918460018302840111600160201b8311171561042b57600080fd5b509092509050610a2e565b61026e6004803603602081101561044c57600080fd5b5035610bcf565b61021c6004803603602081101561046957600080fd5b5035610be5565b61018a610c0d565b61026e6004803603602081101561048e57600080fd5b50356001600160a01b0316610c6e565b610264610cd6565b61021c610d94565b61018a610da3565b6104d3600480360360208110156104cc57600080fd5b5035610e04565b60405180856001600160a01b03168152602001806020018060200180602001848103845287818151815260200191508051906020019080838360005b8381101561052757818101518382015260200161050f565b50505050905090810190601f1680156105545780820380516001836020036101000a031916815260200191505b50848103835286518152865160209182019188019080838360005b8381101561058757818101518382015260200161056f565b50505050905090810190601f1680156105b45780820380516001836020036101000a031916815260200191505b50848103825285518152855160209182019187019080838360005b838110156105e75781810151838201526020016105cf565b50505050905090810190601f1680156106145780820380516001836020036101000a031916815260200191505b5097505050505050505060405180910390f35b6102646004803603604081101561063d57600080fd5b506001600160a01b0381351690602001351515610fea565b6102646004803603608081101561066b57600080fd5b6001600160a01b03823581169260208101359091169160408201359190810190608081016060820135600160201b8111156106a557600080fd5b8201836020820111156106b757600080fd5b803590602001918460018302840111600160201b831117156106d857600080fd5b91908080601f0160208091040260200160405190810160405280939291908181526020018383808284376000920191909152509295506110ef945050505050565b61018a6004803603602081101561072f57600080fd5b503561114d565b61016e6004803603604081101561074c57600080fd5b506001600160a01b03813581169160200135166113d0565b6102646004803603602081101561077a57600080fd5b50356001600160a01b03166113fe565b6001600160e01b0319811660009081526020819052604090205460ff165b919050565b60068054604080516020601f60026000196101006001881615020190951694909404938401819004810282018101909252828152606093909290918301828280156108395780601f1061080e57610100808354040283529160200191610839565b820191906000526020600020905b81548152906001019060200180831161081c57829003601f168201915b5050505050905090565b600061084e82611513565b6108895760405162461bcd60e51b815260040180806020018281038252602c815260200180612342602c913960400191505060405180910390fd5b506000908152600460205260409020546001600160a01b031690565b60006108b082610be5565b9050806001600160a01b0316836001600160a01b031614156109035760405162461bcd60e51b81526004018080602001828103825260218152602001806123c66021913960400191505060405180910390fd5b806001600160a01b0316610915611520565b6001600160a01b03161480610936575061093681610931611520565b6113d0565b6109715760405162461bcd60e51b81526004018080602001828103825260388152602001806122956038913960400191505060405180910390fd5b61097b8383611524565b505050565b600061098c6002611592565b905090565b6109a261099c611520565b8261159d565b6109dd5760405162461bcd60e51b81526004018080602001828103825260318152602001806123e76031913960400191505060405180910390fd5b61097b838383611641565b6001600160a01b0382166000908152600160205260408120610a0a908361178d565b90505b92915050565b61097b838383604051806020016040528060008152506110ef565b6000600c805490509050600c60405180608001604052808a6001600160a01b0316815260200189898080601f016020809104026020016040519081016040528093929190818152602001838380828437600092019190915250505090825250604080516020601f8a0181900481028201810190925288815291810191908990899081908401838280828437600092019190915250505090825250604080516020601f8801819004810282018101909252868152918101919087908790819084018382808284376000920182905250939094525050835460018082018655948252602091829020845160049092020180546001600160a01b0319166001600160a01b0390921691909117815583820151805194959194610b539450918501920190612137565b5060408201518051610b6f916002840191602090910190612137565b5060608201518051610b8b916003840191602090910190612137565b505050610b988882611799565b604051819033907f4cc0a9c4a99ddc700de1af2c9f916a7cbfdb71f14801ccff94061ad1ef8a804090600090a35050505050505050565b600080610bdd6002846117b7565b509392505050565b6000610a0d826040518060600160405280602981526020016122f760299139600291906117d3565b60098054604080516020601f60026000196101006001881615020190951694909404938401819004810282018101909252828152606093909290918301828280156108395780601f1061080e57610100808354040283529160200191610839565b60006001600160a01b038216610cb55760405162461bcd60e51b815260040180806020018281038252602a8152602001806122cd602a913960400191505060405180910390fd5b6001600160a01b0382166000908152600160205260409020610a0d90611592565b610cde611520565b6001600160a01b0316610cef610d94565b6001600160a01b031614610d4a576040805162461bcd60e51b815260206004820181905260248201527f4f776e61626c653a2063616c6c6572206973206e6f7420746865206f776e6572604482015290519081900360640190fd5b600a546040516000916001600160a01b0316907f8be0079c531659141344cd1fd0a4f28419497f9722a3daafe3b4186f6b6457e0908390a3600a80546001600160a01b0319169055565b600a546001600160a01b031690565b60078054604080516020601f60026000196101006001881615020190951694909404938401819004810282018101909252828152606093909290918301828280156108395780601f1061080e57610100808354040283529160200191610839565b600c8181548110610e1157fe5b600091825260209182902060049091020180546001808301805460408051601f60026000199685161561010002969096019093169490940491820187900487028401870190528083526001600160a01b039093169550929390929190830182828015610ebe5780601f10610e9357610100808354040283529160200191610ebe565b820191906000526020600020905b815481529060010190602001808311610ea157829003601f168201915b50505060028085018054604080516020601f6000196101006001871615020190941695909504928301859004850281018501909152818152959695945090925090830182828015610f505780601f10610f2557610100808354040283529160200191610f50565b820191906000526020600020905b815481529060010190602001808311610f3357829003601f168201915b5050505060038301805460408051602060026001851615610100026000190190941693909304601f8101849004840282018401909252818152949594935090830182828015610fe05780601f10610fb557610100808354040283529160200191610fe0565b820191906000526020600020905b815481529060010190602001808311610fc357829003601f168201915b5050505050905084565b610ff2611520565b6001600160a01b0316826001600160a01b03161415611058576040805162461bcd60e51b815260206004820152601960248201527f4552433732313a20617070726f766520746f2063616c6c657200000000000000604482015290519081900360640190fd5b8060056000611065611520565b6001600160a01b03908116825260208083019390935260409182016000908120918716808252919093529120805460ff1916921515929092179091556110a9611520565b6001600160a01b03167f17307eab39ab6107e8899845ad3d59bd9653f200f220920489ca2b5937696c318360405180821515815260200191505060405180910390a35050565b6111006110fa611520565b8361159d565b61113b5760405162461bcd60e51b81526004018080602001828103825260318152602001806123e76031913960400191505060405180910390fd5b611147848484846117ea565b50505050565b606061115882611513565b6111935760405162461bcd60e51b815260040180806020018281038252602f815260200180612397602f913960400191505060405180910390fd5b60008281526008602090815260409182902080548351601f60026000196101006001861615020190931692909204918201849004840281018401909452808452606093928301828280156112285780601f106111fd57610100808354040283529160200191611228565b820191906000526020600020905b81548152906001019060200180831161120b57829003601f168201915b505050505090506060611239610c0d565b905080516000141561124d575090506107a8565b81511561130e5780826040516020018083805190602001908083835b602083106112885780518252601f199092019160209182019101611269565b51815160209384036101000a600019018019909216911617905285519190930192850191508083835b602083106112d05780518252601f1990920191602091820191016112b1565b6001836020036101000a03801982511681845116808217855250505050505090500192505050604051602081830303815290604052925050506107a8565b806113188561183c565b6040516020018083805190602001908083835b6020831061134a5780518252601f19909201916020918201910161132b565b51815160209384036101000a600019018019909216911617905285519190930192850191508083835b602083106113925780518252601f199092019160209182019101611373565b6001836020036101000a0380198251168184511680821785525050505050509050019250505060405160208183030381529060405292505050919050565b6001600160a01b03918216600090815260056020908152604080832093909416825291909152205460ff1690565b611406611520565b6001600160a01b0316611417610d94565b6001600160a01b031614611472576040805162461bcd60e51b815260206004820181905260248201527f4f776e61626c653a2063616c6c6572206973206e6f7420746865206f776e6572604482015290519081900360640190fd5b6001600160a01b0381166114b75760405162461bcd60e51b815260040180806020018281038252602681526020018061221f6026913960400191505060405180910390fd5b600a546040516001600160a01b038084169216907f8be0079c531659141344cd1fd0a4f28419497f9722a3daafe3b4186f6b6457e090600090a3600a80546001600160a01b0319166001600160a01b0392909216919091179055565b6000610a0d600283611917565b3390565b600081815260046020526040902080546001600160a01b0319166001600160a01b038416908117909155819061155982610be5565b6001600160a01b03167f8c5be1e5ebec7d5bd14f71427d1e84f3dd0314c0f7b2291e5b200ac8c7c3b92560405160405180910390a45050565b6000610a0d82611923565b60006115a882611513565b6115e35760405162461bcd60e51b815260040180806020018281038252602c815260200180612269602c913960400191505060405180910390fd5b60006115ee83610be5565b9050806001600160a01b0316846001600160a01b031614806116295750836001600160a01b031661161e84610843565b6001600160a01b0316145b80611639575061163981856113d0565b949350505050565b826001600160a01b031661165482610be5565b6001600160a01b0316146116995760405162461bcd60e51b815260040180806020018281038252602981526020018061236e6029913960400191505060405180910390fd5b6001600160a01b0382166116de5760405162461bcd60e51b81526004018080602001828103825260248152602001806122456024913960400191505060405180910390fd5b6116e983838361097b565b6116f4600082611524565b6001600160a01b03831660009081526001602052604090206117169082611927565b506001600160a01b03821660009081526001602052604090206117399082611933565b506117466002828461193f565b5080826001600160a01b0316846001600160a01b03167fddf252ad1be2c89b69c2b068fc378daa952ba7f163c4a11628f55a4df523b3ef60405160405180910390a4505050565b6000610a0a8383611955565b6117b38282604051806020016040528060008152506119b9565b5050565b60008080806117c68686611a0b565b9097909650945050505050565b60006117e0848484611a86565b90505b9392505050565b6117f5848484611641565b61180184848484611b50565b6111475760405162461bcd60e51b81526004018080602001828103825260328152602001806121ed6032913960400191505060405180910390fd5b60608161186157506040805180820190915260018152600360fc1b60208201526107a8565b8160005b811561187957600101600a82049150611865565b60608167ffffffffffffffff8111801561189257600080fd5b506040519080825280601f01601f1916602001820160405280156118bd576020820181803683370190505b50859350905060001982015b831561190e57600a840660300160f81b828280600190039350815181106118ec57fe5b60200101906001600160f81b031916908160001a905350600a840493506118c9565b50949350505050565b6000610a0a8383611cb8565b5490565b6000610a0a8383611cd0565b6000610a0a8383611d96565b60006117e084846001600160a01b038516611de0565b815460009082106119975760405162461bcd60e51b81526004018080602001828103825260228152602001806121cb6022913960400191505060405180910390fd5b8260000182815481106119a657fe5b9060005260206000200154905092915050565b6119c38383611e77565b6119d06000848484611b50565b61097b5760405162461bcd60e51b81526004018080602001828103825260328152602001806121ed6032913960400191505060405180910390fd5b815460009081908310611a4f5760405162461bcd60e51b81526004018080602001828103825260228152602001806123206022913960400191505060405180910390fd5b6000846000018481548110611a6057fe5b906000526020600020906002020190508060000154816001015492509250509250929050565b60008281526001840160205260408120548281611b215760405162461bcd60e51b81526004018080602001828103825283818151815260200191508051906020019080838360005b83811015611ae6578181015183820152602001611ace565b50505050905090810190601f168015611b135780820380516001836020036101000a031916815260200191505b509250505060405180910390fd5b50846000016001820381548110611b3457fe5b9060005260206000209060020201600101549150509392505050565b6000611b64846001600160a01b0316611fa5565b611b7057506001611639565b6060611c7e630a85bd0160e11b611b85611520565b88878760405160240180856001600160a01b03168152602001846001600160a01b0316815260200183815260200180602001828103825283818151815260200191508051906020019080838360005b83811015611bec578181015183820152602001611bd4565b50505050905090810190601f168015611c195780820380516001836020036101000a031916815260200191505b5095505050505050604051602081830303815290604052906001600160e01b0319166020820180516001600160e01b0383818316178352505050506040518060600160405280603281526020016121ed603291396001600160a01b0388169190611fab565b90506000818060200190516020811015611c9757600080fd5b50516001600160e01b031916630a85bd0160e11b1492505050949350505050565b60009081526001919091016020526040902054151590565b60008181526001830160205260408120548015611d8c5783546000198083019190810190600090879083908110611d0357fe5b9060005260206000200154905080876000018481548110611d2057fe5b600091825260208083209091019290925582815260018981019092526040902090840190558654879080611d5057fe5b60019003818190600052602060002001600090559055866001016000878152602001908152602001600020600090556001945050505050610a0d565b6000915050610a0d565b6000611da28383611cb8565b611dd857508154600181810184556000848152602080822090930184905584548482528286019093526040902091909155610a0d565b506000610a0d565b600082815260018401602052604081205480611e455750506040805180820182528381526020808201848152865460018181018955600089815284812095516002909302909501918255915190820155865486845281880190925292909120556117e3565b82856000016001830381548110611e5857fe5b90600052602060002090600202016001018190555060009150506117e3565b6001600160a01b038216611ed2576040805162461bcd60e51b815260206004820181905260248201527f4552433732313a206d696e7420746f20746865207a65726f2061646472657373604482015290519081900360640190fd5b611edb81611513565b15611f2d576040805162461bcd60e51b815260206004820152601c60248201527f4552433732313a20746f6b656e20616c7265616479206d696e74656400000000604482015290519081900360640190fd5b611f396000838361097b565b6001600160a01b0382166000908152600160205260409020611f5b9082611933565b50611f686002828461193f565b5060405181906001600160a01b038416906000907fddf252ad1be2c89b69c2b068fc378daa952ba7f163c4a11628f55a4df523b3ef908290a45050565b3b151590565b60606117e0848460008585611fbf85611fa5565b612010576040805162461bcd60e51b815260206004820152601d60248201527f416464726573733a2063616c6c20746f206e6f6e2d636f6e7472616374000000604482015290519081900360640190fd5b60006060866001600160a01b031685876040518082805190602001908083835b6020831061204f5780518252601f199092019160209182019101612030565b6001836020036101000a03801982511681845116808217855250505050505090500191505060006040518083038185875af1925050503d80600081146120b1576040519150601f19603f3d011682016040523d82523d6000602084013e6120b6565b606091505b50915091506120c68282866120d1565b979650505050505050565b606083156120e05750816117e3565b8251156120f05782518084602001fd5b60405162461bcd60e51b8152602060048201818152845160248401528451859391928392604401919085019080838360008315611ae6578181015183820152602001611ace565b828054600181600116156101000203166002900490600052602060002090601f016020900481019282601f1061217857805160ff19168380011785556121a5565b828001600101855582156121a5579182015b828111156121a557825182559160200191906001019061218a565b506121b19291506121b5565b5090565b5b808211156121b157600081556001016121b656fe456e756d657261626c655365743a20696e646578206f7574206f6620626f756e64734552433732313a207472616e7366657220746f206e6f6e20455243373231526563656976657220696d706c656d656e7465724f776e61626c653a206e6577206f776e657220697320746865207a65726f20616464726573734552433732313a207472616e7366657220746f20746865207a65726f20616464726573734552433732313a206f70657261746f7220717565727920666f72206e6f6e6578697374656e7420746f6b656e4552433732313a20617070726f76652063616c6c6572206973206e6f74206f776e6572206e6f7220617070726f76656420666f7220616c6c4552433732313a2062616c616e636520717565727920666f7220746865207a65726f20616464726573734552433732313a206f776e657220717565727920666f72206e6f6e6578697374656e7420746f6b656e456e756d657261626c654d61703a20696e646578206f7574206f6620626f756e64734552433732313a20617070726f76656420717565727920666f72206e6f6e6578697374656e7420746f6b656e4552433732313a207472616e73666572206f6620746f6b656e2074686174206973206e6f74206f776e4552433732314d657461646174613a2055524920717565727920666f72206e6f6e6578697374656e7420746f6b656e4552433732313a20617070726f76616c20746f2063757272656e74206f776e65724552433732313a207472616e736665722063616c6c6572206973206e6f74206f776e6572206e6f7220617070726f766564a2646970667358221220e6ebabcefe82b69181ede13aef178cf9be8c110acc61214eca7a355ceca0895864736f6c63430007030033",
  "linkReferences": {},
  "deployedLinkReferences": {}
}